{
  "_format": "hh-sol-artifact-1",
  "contractName": "SofiaCoin",
  "sourceName": "contracts/SofiaCoin.sol",
  "abi": [
    {
      "inputs": [],
      "stateMutability": "nonpayable",
      "type": "constructor"
    },
    {
      "anonymous": false,
      "inputs": [
        {
          "indexed": true,
          "internalType": "address",
          "name": "owner",
          "type": "address"
        },
        {
          "indexed": true,
          "internalType": "address",
          "name": "spender",
          "type": "address"
        },
        {
          "indexed": false,
          "internalType": "uint256",
          "name": "value",
          "type": "uint256"
        }
      ],
      "name": "Approval",
      "type": "event"
    },
    {
      "anonymous": false,
      "inputs": [
        {
          "indexed": true,
          "internalType": "address",
          "name": "previousOwner",
          "type": "address"
        },
        {
          "indexed": true,
          "internalType": "address",
          "name": "newOwner",
          "type": "address"
        }
      ],
      "name": "OwnershipTransferred",
      "type": "event"
    },
    {
      "anonymous": false,
      "inputs": [
        {
          "indexed": false,
          "internalType": "address",
          "name": "account",
          "type": "address"
        }
      ],
      "name": "Paused",
      "type": "event"
    },
    {
      "anonymous": false,
      "inputs": [
        {
          "indexed": true,
          "internalType": "address",
          "name": "from",
          "type": "address"
        },
        {
          "indexed": true,
          "internalType": "address",
          "name": "to",
          "type": "address"
        },
        {
          "indexed": false,
          "internalType": "uint256",
          "name": "value",
          "type": "uint256"
        }
      ],
      "name": "Transfer",
      "type": "event"
    },
    {
      "anonymous": false,
      "inputs": [
        {
          "indexed": false,
          "internalType": "address",
          "name": "account",
          "type": "address"
        }
      ],
      "name": "Unpaused",
      "type": "event"
    },
    {
      "inputs": [],
      "name": "DOMAIN_SEPARATOR",
      "outputs": [
        {
          "internalType": "bytes32",
          "name": "",
          "type": "bytes32"
        }
      ],
      "stateMutability": "view",
      "type": "function"
    },
    {
      "inputs": [
        {
          "internalType": "address",
          "name": "owner",
          "type": "address"
        },
        {
          "internalType": "address",
          "name": "spender",
          "type": "address"
        }
      ],
      "name": "allowance",
      "outputs": [
        {
          "internalType": "uint256",
          "name": "",
          "type": "uint256"
        }
      ],
      "stateMutability": "view",
      "type": "function"
    },
    {
      "inputs": [
        {
          "internalType": "address",
          "name": "spender",
          "type": "address"
        },
        {
          "internalType": "uint256",
          "name": "amount",
          "type": "uint256"
        }
      ],
      "name": "approve",
      "outputs": [
        {
          "internalType": "bool",
          "name": "",
          "type": "bool"
        }
      ],
      "stateMutability": "nonpayable",
      "type": "function"
    },
    {
      "inputs": [
        {
          "internalType": "address",
          "name": "account",
          "type": "address"
        }
      ],
      "name": "balanceOf",
      "outputs": [
        {
          "internalType": "uint256",
          "name": "",
          "type": "uint256"
        }
      ],
      "stateMutability": "view",
      "type": "function"
    },
    {
      "inputs": [
        {
          "internalType": "uint256",
          "name": "amount",
          "type": "uint256"
        }
      ],
      "name": "burn",
      "outputs": [],
      "stateMutability": "nonpayable",
      "type": "function"
    },
    {
      "inputs": [
        {
          "internalType": "address",
          "name": "account",
          "type": "address"
        },
        {
          "internalType": "uint256",
          "name": "amount",
          "type": "uint256"
        }
      ],
      "name": "burnFrom",
      "outputs": [],
      "stateMutability": "nonpayable",
      "type": "function"
    },
    {
      "inputs": [],
      "name": "decimals",
      "outputs": [
        {
          "internalType": "uint8",
          "name": "",
          "type": "uint8"
        }
      ],
      "stateMutability": "view",
      "type": "function"
    },
    {
      "inputs": [
        {
          "internalType": "address",
          "name": "spender",
          "type": "address"
        },
        {
          "internalType": "uint256",
          "name": "subtractedValue",
          "type": "uint256"
        }
      ],
      "name": "decreaseAllowance",
      "outputs": [
        {
          "internalType": "bool",
          "name": "",
          "type": "bool"
        }
      ],
      "stateMutability": "nonpayable",
      "type": "function"
    },
    {
      "inputs": [
        {
          "internalType": "address",
          "name": "spender",
          "type": "address"
        },
        {
          "internalType": "uint256",
          "name": "addedValue",
          "type": "uint256"
        }
      ],
      "name": "increaseAllowance",
      "outputs": [
        {
          "internalType": "bool",
          "name": "",
          "type": "bool"
        }
      ],
      "stateMutability": "nonpayable",
      "type": "function"
    },
    {
      "inputs": [
        {
          "internalType": "address",
          "name": "to",
          "type": "address"
        },
        {
          "internalType": "uint256",
          "name": "amount",
          "type": "uint256"
        }
      ],
      "name": "mint",
      "outputs": [],
      "stateMutability": "nonpayable",
      "type": "function"
    },
    {
      "inputs": [],
      "name": "name",
      "outputs": [
        {
          "internalType": "string",
          "name": "",
          "type": "string"
        }
      ],
      "stateMutability": "view",
      "type": "function"
    },
    {
      "inputs": [
        {
          "internalType": "address",
          "name": "owner",
          "type": "address"
        }
      ],
      "name": "nonces",
      "outputs": [
        {
          "internalType": "uint256",
          "name": "",
          "type": "uint256"
        }
      ],
      "stateMutability": "view",
      "type": "function"
    },
    {
      "inputs": [],
      "name": "owner",
      "outputs": [
        {
          "internalType": "address",
          "name": "",
          "type": "address"
        }
      ],
      "stateMutability": "view",
      "type": "function"
    },
    {
      "inputs": [],
      "name": "pause",
      "outputs": [],
      "stateMutability": "nonpayable",
      "type": "function"
    },
    {
      "inputs": [],
      "name": "paused",
      "outputs": [
        {
          "internalType": "bool",
          "name": "",
          "type": "bool"
        }
      ],
      "stateMutability": "view",
      "type": "function"
    },
    {
      "inputs": [
        {
          "internalType": "address",
          "name": "owner",
          "type": "address"
        },
        {
          "internalType": "address",
          "name": "spender",
          "type": "address"
        },
        {
          "internalType": "uint256",
          "name": "value",
          "type": "uint256"
        },
        {
          "internalType": "uint256",
          "name": "deadline",
          "type": "uint256"
        },
        {
          "internalType": "uint8",
          "name": "v",
          "type": "uint8"
        },
        {
          "internalType": "bytes32",
          "name": "r",
          "type": "bytes32"
        },
        {
          "internalType": "bytes32",
          "name": "s",
          "type": "bytes32"
        }
      ],
      "name": "permit",
      "outputs": [],
      "stateMutability": "nonpayable",
      "type": "function"
    },
    {
      "inputs": [],
      "name": "renounceOwnership",
      "outputs": [],
      "stateMutability": "nonpayable",
      "type": "function"
    },
    {
      "inputs": [],
      "name": "symbol",
      "outputs": [
        {
          "internalType": "string",
          "name": "",
          "type": "string"
        }
      ],
      "stateMutability": "view",
      "type": "function"
    },
    {
      "inputs": [],
      "name": "totalSupply",
      "outputs": [
        {
          "internalType": "uint256",
          "name": "",
          "type": "uint256"
        }
      ],
      "stateMutability": "view",
      "type": "function"
    },
    {
      "inputs": [
        {
          "internalType": "address",
          "name": "to",
          "type": "address"
        },
        {
          "internalType": "uint256",
          "name": "amount",
          "type": "uint256"
        }
      ],
      "name": "transfer",
      "outputs": [
        {
          "internalType": "bool",
          "name": "",
          "type": "bool"
        }
      ],
      "stateMutability": "nonpayable",
      "type": "function"
    },
    {
      "inputs": [
        {
          "internalType": "address",
          "name": "from",
          "type": "address"
        },
        {
          "internalType": "address",
          "name": "to",
          "type": "address"
        },
        {
          "internalType": "uint256",
          "name": "amount",
          "type": "uint256"
        }
      ],
      "name": "transferFrom",
      "outputs": [
        {
          "internalType": "bool",
          "name": "",
          "type": "bool"
        }
      ],
      "stateMutability": "nonpayable",
      "type": "function"
    },
    {
      "inputs": [
        {
          "internalType": "address",
          "name": "newOwner",
          "type": "address"
        }
      ],
      "name": "transferOwnership",
      "outputs": [],
      "stateMutability": "nonpayable",
      "type": "function"
    },
    {
      "inputs": [],
      "name": "unpause",
      "outputs": [],
      "stateMutability": "nonpayable",
      "type": "function"
    }
  ],
  "bytecode": "0x6101406040523480156200001257600080fd5b506040518060400160405280600a81526020017f536f66696120436f696e00000000000000000000000000000000000000000000815250806040518060400160405280600181526020017f31000000000000000000000000000000000000000000000000000000000000008152506040518060400160405280600a81526020017f536f66696120436f696e000000000000000000000000000000000000000000008152506040518060400160405280600381526020017f534f46000000000000000000000000000000000000000000000000000000000081525081600390805190602001906200010492919062000575565b5080600490805190602001906200011d92919062000575565b5050506000600560006101000a81548160ff0219169083151502179055506200015b6200014f6200025860201b60201c565b6200026060201b60201c565b60008280519060200120905060008280519060200120905060007f8b73c3c69bb8fe3d512ecc4cf759cc79239f7b179b0ffacaa9a75d522b39400f90508260e081815250508161010081815250504660a08181525050620001c48184846200032660201b60201c565b608081815250503073ffffffffffffffffffffffffffffffffffffffff1660c08173ffffffffffffffffffffffffffffffffffffffff1660601b815250508061012081815250505050505050506200025233620002266200036260201b60201c565b600a6200023491906200082d565b641e980ce2006200024691906200096a565b6200036b60201b60201c565b62000b13565b600033905090565b6000600560019054906101000a900473ffffffffffffffffffffffffffffffffffffffff16905081600560016101000a81548173ffffffffffffffffffffffffffffffffffffffff021916908373ffffffffffffffffffffffffffffffffffffffff1602179055508173ffffffffffffffffffffffffffffffffffffffff168173ffffffffffffffffffffffffffffffffffffffff167f8be0079c531659141344cd1fd0a4f28419497f9722a3daafe3b4186f6b6457e060405160405180910390a35050565b6000838383463060405160200162000343959493929190620006a6565b6040516020818303038152906040528051906020012090509392505050565b60006012905090565b600073ffffffffffffffffffffffffffffffffffffffff168273ffffffffffffffffffffffffffffffffffffffff161415620003de576040517f08c379a0000000000000000000000000000000000000000000000000000000008152600401620003d59062000725565b60405180910390fd5b620003f260008383620004e460201b60201c565b806002600082825462000406919062000775565b92505081905550806000808473ffffffffffffffffffffffffffffffffffffffff1673ffffffffffffffffffffffffffffffffffffffff16815260200190815260200160002060008282546200045d919062000775565b925050819055508173ffffffffffffffffffffffffffffffffffffffff16600073ffffffffffffffffffffffffffffffffffffffff167fddf252ad1be2c89b69c2b068fc378daa952ba7f163c4a11628f55a4df523b3ef83604051620004c4919062000747565b60405180910390a3620004e0600083836200055460201b60201c565b5050565b620004f46200055960201b60201c565b1562000537576040517f08c379a00000000000000000000000000000000000000000000000000000000081526004016200052e9062000703565b60405180910390fd5b6200054f8383836200057060201b62000ca31760201c565b505050565b505050565b6000600560009054906101000a900460ff16905090565b505050565b828054620005839062000a20565b90600052602060002090601f016020900481019282620005a75760008555620005f3565b82601f10620005c257805160ff1916838001178555620005f3565b82800160010185558215620005f3579182015b82811115620005f2578251825591602001919060010190620005d5565b5b50905062000602919062000606565b5090565b5b808211156200062157600081600090555060010162000607565b5090565b6200063081620009cb565b82525050565b6200064181620009df565b82525050565b60006200065660108362000764565b9150620006638262000ac1565b602082019050919050565b60006200067d601f8362000764565b91506200068a8262000aea565b602082019050919050565b620006a08162000a09565b82525050565b600060a082019050620006bd600083018862000636565b620006cc602083018762000636565b620006db604083018662000636565b620006ea606083018562000695565b620006f9608083018462000625565b9695505050505050565b600060208201905081810360008301526200071e8162000647565b9050919050565b6000602082019050818103600083015262000740816200066e565b9050919050565b60006020820190506200075e600083018462000695565b92915050565b600082825260208201905092915050565b6000620007828262000a09565b91506200078f8362000a09565b9250827fffffffffffffffffffffffffffffffffffffffffffffffffffffffffffffffff03821115620007c757620007c662000a56565b5b828201905092915050565b6000808291508390505b60018511156200082457808604811115620007fc57620007fb62000a56565b5b60018516156200080c5780820291505b80810290506200081c8562000ab4565b9450620007dc565b94509492505050565b60006200083a8262000a09565b9150620008478362000a13565b9250620008767fffffffffffffffffffffffffffffffffffffffffffffffffffffffffffffffff84846200087e565b905092915050565b60008262000890576001905062000963565b81620008a0576000905062000963565b8160018114620008b95760028114620008c457620008fa565b600191505062000963565b60ff841115620008d957620008d862000a56565b5b8360020a915084821115620008f357620008f262000a56565b5b5062000963565b5060208310610133831016604e8410600b8410161715620009345782820a9050838111156200092e576200092d62000a56565b5b62000963565b620009438484846001620007d2565b925090508184048111156200095d576200095c62000a56565b5b81810290505b9392505050565b6000620009778262000a09565b9150620009848362000a09565b9250817fffffffffffffffffffffffffffffffffffffffffffffffffffffffffffffffff0483118215151615620009c057620009bf62000a56565b5b828202905092915050565b6000620009d882620009e9565b9050919050565b6000819050919050565b600073ffffffffffffffffffffffffffffffffffffffff82169050919050565b6000819050919050565b600060ff82169050919050565b6000600282049050600182168062000a3957607f821691505b6020821081141562000a505762000a4f62000a85565b5b50919050565b7f4e487b7100000000000000000000000000000000000000000000000000000000600052601160045260246000fd5b7f4e487b7100000000000000000000000000000000000000000000000000000000600052602260045260246000fd5b60008160011c9050919050565b7f5061757361626c653a2070617573656400000000000000000000000000000000600082015250565b7f45524332303a206d696e7420746f20746865207a65726f206164647265737300600082015250565b60805160a05160c05160601c60e0516101005161012051612f3062000b66600039600061123601526000611278015260006112570152600061118c015260006111e20152600061120b0152612f306000f3fe608060405234801561001057600080fd5b506004361061014d5760003560e01c806370a08231116100c357806395d89b411161007c57806395d89b4114610368578063a457c2d714610386578063a9059cbb146103b6578063d505accf146103e6578063dd62ed3e14610402578063f2fde38b146104325761014d565b806370a08231146102ba578063715018a6146102ea57806379cc6790146102f45780637ecebe00146103105780638456cb59146103405780638da5cb5b1461034a5761014d565b80633644e515116101155780633644e5151461020c578063395093511461022a5780633f4ba83a1461025a57806340c10f191461026457806342966c68146102805780635c975abb1461029c5761014d565b806306fdde0314610152578063095ea7b31461017057806318160ddd146101a057806323b872dd146101be578063313ce567146101ee575b600080fd5b61015a61044e565b60405161016791906124d9565b60405180910390f35b61018a60048036038101906101859190611f79565b6104e0565b60405161019791906123aa565b60405180910390f35b6101a8610503565b6040516101b5919061277b565b60405180910390f35b6101d860048036038101906101d39190611e8c565b61050d565b6040516101e591906123aa565b60405180910390f35b6101f661053c565b6040516102039190612796565b60405180910390f35b610214610545565b60405161022191906123c5565b60405180910390f35b610244600480360381019061023f9190611f79565b610554565b60405161025191906123aa565b60405180910390f35b61026261058b565b005b61027e60048036038101906102799190611f79565b610611565b005b61029a60048036038101906102959190611fb5565b61069b565b005b6102a46106af565b6040516102b191906123aa565b60405180910390f35b6102d460048036038101906102cf9190611e27565b6106c6565b6040516102e1919061277b565b60405180910390f35b6102f261070e565b005b61030e60048036038101906103099190611f79565b610796565b005b61032a60048036038101906103259190611e27565b6107b6565b604051610337919061277b565b60405180910390f35b610348610806565b005b61035261088c565b60405161035f919061238f565b60405180910390f35b6103706108b6565b60405161037d91906124d9565b60405180910390f35b6103a0600480360381019061039b9190611f79565b610948565b6040516103ad91906123aa565b60405180910390f35b6103d060048036038101906103cb9190611f79565b6109bf565b6040516103dd91906123aa565b60405180910390f35b61040060048036038101906103fb9190611edb565b6109e2565b005b61041c60048036038101906104179190611e50565b610b24565b604051610429919061277b565b60405180910390f35b61044c60048036038101906104479190611e27565b610bab565b005b60606003805461045d906128f4565b80601f0160208091040260200160405190810160405280929190818152602001828054610489906128f4565b80156104d65780601f106104ab576101008083540402835291602001916104d6565b820191906000526020600020905b8154815290600101906020018083116104b957829003601f168201915b5050505050905090565b6000806104eb610ca8565b90506104f8818585610cb0565b600191505092915050565b6000600254905090565b600080610518610ca8565b9050610525858285610e7b565b610530858585610f07565b60019150509392505050565b60006012905090565b600061054f611188565b905090565b60008061055f610ca8565b90506105808185856105718589610b24565b61057b91906127d8565b610cb0565b600191505092915050565b610593610ca8565b73ffffffffffffffffffffffffffffffffffffffff166105b161088c565b73ffffffffffffffffffffffffffffffffffffffff1614610607576040517f08c379a00000000000000000000000000000000000000000000000000000000081526004016105fe906126bb565b60405180910390fd5b61060f6112a2565b565b610619610ca8565b73ffffffffffffffffffffffffffffffffffffffff1661063761088c565b73ffffffffffffffffffffffffffffffffffffffff161461068d576040517f08c379a0000000000000000000000000000000000000000000000000000000008152600401610684906126bb565b60405180910390fd5b6106978282611344565b5050565b6106ac6106a6610ca8565b826114a4565b50565b6000600560009054906101000a900460ff16905090565b60008060008373ffffffffffffffffffffffffffffffffffffffff1673ffffffffffffffffffffffffffffffffffffffff168152602001908152602001600020549050919050565b610716610ca8565b73ffffffffffffffffffffffffffffffffffffffff1661073461088c565b73ffffffffffffffffffffffffffffffffffffffff161461078a576040517f08c379a0000000000000000000000000000000000000000000000000000000008152600401610781906126bb565b60405180910390fd5b610794600061167b565b565b6107a8826107a2610ca8565b83610e7b565b6107b282826114a4565b5050565b60006107ff600660008473ffffffffffffffffffffffffffffffffffffffff1673ffffffffffffffffffffffffffffffffffffffff168152602001908152602001600020611741565b9050919050565b61080e610ca8565b73ffffffffffffffffffffffffffffffffffffffff1661082c61088c565b73ffffffffffffffffffffffffffffffffffffffff1614610882576040517f08c379a0000000000000000000000000000000000000000000000000000000008152600401610879906126bb565b60405180910390fd5b61088a61174f565b565b6000600560019054906101000a900473ffffffffffffffffffffffffffffffffffffffff16905090565b6060600480546108c5906128f4565b80601f01602080910402602001604051908101604052809291908181526020018280546108f1906128f4565b801561093e5780601f106109135761010080835404028352916020019161093e565b820191906000526020600020905b81548152906001019060200180831161092157829003601f168201915b5050505050905090565b600080610953610ca8565b905060006109618286610b24565b9050838110156109a6576040517f08c379a000000000000000000000000000000000000000000000000000000000815260040161099d9061273b565b60405180910390fd5b6109b38286868403610cb0565b60019250505092915050565b6000806109ca610ca8565b90506109d7818585610f07565b600191505092915050565b83421115610a25576040517f08c379a0000000000000000000000000000000000000000000000000000000008152600401610a1c906125fb565b60405180910390fd5b60007f6e71edae12b1b97f4d1f60370fef10105fa2faae0126114a169c64845d6126c9888888610a548c6117f2565b89604051602001610a6a969594939291906123e0565b6040516020818303038152906040528051906020012090506000610a8d82611850565b90506000610a9d8287878761186a565b90508973ffffffffffffffffffffffffffffffffffffffff168173ffffffffffffffffffffffffffffffffffffffff1614610b0d576040517f08c379a0000000000000000000000000000000000000000000000000000000008152600401610b049061269b565b60405180910390fd5b610b188a8a8a610cb0565b50505050505050505050565b6000600160008473ffffffffffffffffffffffffffffffffffffffff1673ffffffffffffffffffffffffffffffffffffffff16815260200190815260200160002060008373ffffffffffffffffffffffffffffffffffffffff1673ffffffffffffffffffffffffffffffffffffffff16815260200190815260200160002054905092915050565b610bb3610ca8565b73ffffffffffffffffffffffffffffffffffffffff16610bd161088c565b73ffffffffffffffffffffffffffffffffffffffff1614610c27576040517f08c379a0000000000000000000000000000000000000000000000000000000008152600401610c1e906126bb565b60405180910390fd5b600073ffffffffffffffffffffffffffffffffffffffff168173ffffffffffffffffffffffffffffffffffffffff161415610c97576040517f08c379a0000000000000000000000000000000000000000000000000000000008152600401610c8e9061259b565b60405180910390fd5b610ca08161167b565b50565b505050565b600033905090565b600073ffffffffffffffffffffffffffffffffffffffff168373ffffffffffffffffffffffffffffffffffffffff161415610d20576040517f08c379a0000000000000000000000000000000000000000000000000000000008152600401610d179061271b565b60405180910390fd5b600073ffffffffffffffffffffffffffffffffffffffff168273ffffffffffffffffffffffffffffffffffffffff161415610d90576040517f08c379a0000000000000000000000000000000000000000000000000000000008152600401610d87906125bb565b60405180910390fd5b80600160008573ffffffffffffffffffffffffffffffffffffffff1673ffffffffffffffffffffffffffffffffffffffff16815260200190815260200160002060008473ffffffffffffffffffffffffffffffffffffffff1673ffffffffffffffffffffffffffffffffffffffff168152602001908152602001600020819055508173ffffffffffffffffffffffffffffffffffffffff168373ffffffffffffffffffffffffffffffffffffffff167f8c5be1e5ebec7d5bd14f71427d1e84f3dd0314c0f7b2291e5b200ac8c7c3b92583604051610e6e919061277b565b60405180910390a3505050565b6000610e878484610b24565b90507fffffffffffffffffffffffffffffffffffffffffffffffffffffffffffffffff8114610f015781811015610ef3576040517f08c379a0000000000000000000000000000000000000000000000000000000008152600401610eea906125db565b60405180910390fd5b610f008484848403610cb0565b5b50505050565b600073ffffffffffffffffffffffffffffffffffffffff168373ffffffffffffffffffffffffffffffffffffffff161415610f77576040517f08c379a0000000000000000000000000000000000000000000000000000000008152600401610f6e906126fb565b60405180910390fd5b600073ffffffffffffffffffffffffffffffffffffffff168273ffffffffffffffffffffffffffffffffffffffff161415610fe7576040517f08c379a0000000000000000000000000000000000000000000000000000000008152600401610fde9061251b565b60405180910390fd5b610ff2838383611895565b60008060008573ffffffffffffffffffffffffffffffffffffffff1673ffffffffffffffffffffffffffffffffffffffff16815260200190815260200160002054905081811015611078576040517f08c379a000000000000000000000000000000000000000000000000000000000815260040161106f9061261b565b60405180910390fd5b8181036000808673ffffffffffffffffffffffffffffffffffffffff1673ffffffffffffffffffffffffffffffffffffffff16815260200190815260200160002081905550816000808573ffffffffffffffffffffffffffffffffffffffff1673ffffffffffffffffffffffffffffffffffffffff168152602001908152602001600020600082825461110b91906127d8565b925050819055508273ffffffffffffffffffffffffffffffffffffffff168473ffffffffffffffffffffffffffffffffffffffff167fddf252ad1be2c89b69c2b068fc378daa952ba7f163c4a11628f55a4df523b3ef8460405161116f919061277b565b60405180910390a36111828484846118ed565b50505050565b60007f000000000000000000000000000000000000000000000000000000000000000073ffffffffffffffffffffffffffffffffffffffff163073ffffffffffffffffffffffffffffffffffffffff1614801561120457507f000000000000000000000000000000000000000000000000000000000000000046145b15611231577f0000000000000000000000000000000000000000000000000000000000000000905061129f565b61129c7f00000000000000000000000000000000000000000000000000000000000000007f00000000000000000000000000000000000000000000000000000000000000007f00000000000000000000000000000000000000000000000000000000000000006118f2565b90505b90565b6112aa6106af565b6112e9576040517f08c379a00000000000000000000000000000000000000000000000000000000081526004016112e09061253b565b60405180910390fd5b6000600560006101000a81548160ff0219169083151502179055507f5db9ee0a495bf2e6ff9c91a7834c1ba4fdd244a5e8aa4e537bd38aeae4b073aa61132d610ca8565b60405161133a919061238f565b60405180910390a1565b600073ffffffffffffffffffffffffffffffffffffffff168273ffffffffffffffffffffffffffffffffffffffff1614156113b4576040517f08c379a00000000000000000000000000000000000000000000000000000000081526004016113ab9061275b565b60405180910390fd5b6113c060008383611895565b80600260008282546113d291906127d8565b92505081905550806000808473ffffffffffffffffffffffffffffffffffffffff1673ffffffffffffffffffffffffffffffffffffffff168152602001908152602001600020600082825461142791906127d8565b925050819055508173ffffffffffffffffffffffffffffffffffffffff16600073ffffffffffffffffffffffffffffffffffffffff167fddf252ad1be2c89b69c2b068fc378daa952ba7f163c4a11628f55a4df523b3ef8360405161148c919061277b565b60405180910390a36114a0600083836118ed565b5050565b600073ffffffffffffffffffffffffffffffffffffffff168273ffffffffffffffffffffffffffffffffffffffff161415611514576040517f08c379a000000000000000000000000000000000000000000000000000000000815260040161150b906126db565b60405180910390fd5b61152082600083611895565b60008060008473ffffffffffffffffffffffffffffffffffffffff1673ffffffffffffffffffffffffffffffffffffffff168152602001908152602001600020549050818110156115a6576040517f08c379a000000000000000000000000000000000000000000000000000000000815260040161159d9061255b565b60405180910390fd5b8181036000808573ffffffffffffffffffffffffffffffffffffffff1673ffffffffffffffffffffffffffffffffffffffff1681526020019081526020016000208190555081600260008282546115fd919061282e565b92505081905550600073ffffffffffffffffffffffffffffffffffffffff168373ffffffffffffffffffffffffffffffffffffffff167fddf252ad1be2c89b69c2b068fc378daa952ba7f163c4a11628f55a4df523b3ef84604051611662919061277b565b60405180910390a3611676836000846118ed565b505050565b6000600560019054906101000a900473ffffffffffffffffffffffffffffffffffffffff16905081600560016101000a81548173ffffffffffffffffffffffffffffffffffffffff021916908373ffffffffffffffffffffffffffffffffffffffff1602179055508173ffffffffffffffffffffffffffffffffffffffff168173ffffffffffffffffffffffffffffffffffffffff167f8be0079c531659141344cd1fd0a4f28419497f9722a3daafe3b4186f6b6457e060405160405180910390a35050565b600081600001549050919050565b6117576106af565b15611797576040517f08c379a000000000000000000000000000000000000000000000000000000000815260040161178e9061265b565b60405180910390fd5b6001600560006101000a81548160ff0219169083151502179055507f62e78cea01bee320cd4e420270b5ea74000d11b0c9f74754ebdbfc544b05a2586117db610ca8565b6040516117e8919061238f565b60405180910390a1565b600080600660008473ffffffffffffffffffffffffffffffffffffffff1673ffffffffffffffffffffffffffffffffffffffff168152602001908152602001600020905061183f81611741565b915061184a8161192c565b50919050565b600061186361185d611188565b83611942565b9050919050565b600080600061187b87878787611975565b9150915061188881611a82565b8192505050949350505050565b61189d6106af565b156118dd576040517f08c379a00000000000000000000000000000000000000000000000000000000081526004016118d49061265b565b60405180910390fd5b6118e8838383610ca3565b505050565b505050565b6000838383463060405160200161190d959493929190612441565b6040516020818303038152906040528051906020012090509392505050565b6001816000016000828254019250508190555050565b60008282604051602001611957929190612358565b60405160208183030381529060405280519060200120905092915050565b6000807f7fffffffffffffffffffffffffffffff5d576e7357a4501ddfe92f46681b20a08360001c11156119b0576000600391509150611a79565b601b8560ff16141580156119c85750601c8560ff1614155b156119da576000600491509150611a79565b6000600187878787604051600081526020016040526040516119ff9493929190612494565b6020604051602081039080840390855afa158015611a21573d6000803e3d6000fd5b505050602060405103519050600073ffffffffffffffffffffffffffffffffffffffff168173ffffffffffffffffffffffffffffffffffffffff161415611a7057600060019250925050611a79565b80600092509250505b94509492505050565b60006004811115611abc577f4e487b7100000000000000000000000000000000000000000000000000000000600052602160045260246000fd5b816004811115611af5577f4e487b7100000000000000000000000000000000000000000000000000000000600052602160045260246000fd5b1415611b0057611dd0565b60016004811115611b3a577f4e487b7100000000000000000000000000000000000000000000000000000000600052602160045260246000fd5b816004811115611b73577f4e487b7100000000000000000000000000000000000000000000000000000000600052602160045260246000fd5b1415611bb4576040517f08c379a0000000000000000000000000000000000000000000000000000000008152600401611bab906124fb565b60405180910390fd5b60026004811115611bee577f4e487b7100000000000000000000000000000000000000000000000000000000600052602160045260246000fd5b816004811115611c27577f4e487b7100000000000000000000000000000000000000000000000000000000600052602160045260246000fd5b1415611c68576040517f08c379a0000000000000000000000000000000000000000000000000000000008152600401611c5f9061257b565b60405180910390fd5b60036004811115611ca2577f4e487b7100000000000000000000000000000000000000000000000000000000600052602160045260246000fd5b816004811115611cdb577f4e487b7100000000000000000000000000000000000000000000000000000000600052602160045260246000fd5b1415611d1c576040517f08c379a0000000000000000000000000000000000000000000000000000000008152600401611d139061263b565b60405180910390fd5b600480811115611d55577f4e487b7100000000000000000000000000000000000000000000000000000000600052602160045260246000fd5b816004811115611d8e577f4e487b7100000000000000000000000000000000000000000000000000000000600052602160045260246000fd5b1415611dcf576040517f08c379a0000000000000000000000000000000000000000000000000000000008152600401611dc69061267b565b60405180910390fd5b5b50565b600081359050611de281612e9e565b92915050565b600081359050611df781612eb5565b92915050565b600081359050611e0c81612ecc565b92915050565b600081359050611e2181612ee3565b92915050565b600060208284031215611e3957600080fd5b6000611e4784828501611dd3565b91505092915050565b60008060408385031215611e6357600080fd5b6000611e7185828601611dd3565b9250506020611e8285828601611dd3565b9150509250929050565b600080600060608486031215611ea157600080fd5b6000611eaf86828701611dd3565b9350506020611ec086828701611dd3565b9250506040611ed186828701611dfd565b9150509250925092565b600080600080600080600060e0888a031215611ef657600080fd5b6000611f048a828b01611dd3565b9750506020611f158a828b01611dd3565b9650506040611f268a828b01611dfd565b9550506060611f378a828b01611dfd565b9450506080611f488a828b01611e12565b93505060a0611f598a828b01611de8565b92505060c0611f6a8a828b01611de8565b91505092959891949750929550565b60008060408385031215611f8c57600080fd5b6000611f9a85828601611dd3565b9250506020611fab85828601611dfd565b9150509250929050565b600060208284031215611fc757600080fd5b6000611fd584828501611dfd565b91505092915050565b611fe781612862565b82525050565b611ff681612874565b82525050565b61200581612880565b82525050565b61201c61201782612880565b612926565b82525050565b600061202d826127b1565b61203781856127bc565b93506120478185602086016128c1565b6120508161298e565b840191505092915050565b60006120686018836127bc565b91506120738261299f565b602082019050919050565b600061208b6023836127bc565b9150612096826129c8565b604082019050919050565b60006120ae6014836127bc565b91506120b982612a17565b602082019050919050565b60006120d16022836127bc565b91506120dc82612a40565b604082019050919050565b60006120f4601f836127bc565b91506120ff82612a8f565b602082019050919050565b60006121176026836127bc565b915061212282612ab8565b604082019050919050565b600061213a6022836127bc565b915061214582612b07565b604082019050919050565b600061215d6002836127cd565b915061216882612b56565b600282019050919050565b6000612180601d836127bc565b915061218b82612b7f565b602082019050919050565b60006121a3601d836127bc565b91506121ae82612ba8565b602082019050919050565b60006121c66026836127bc565b91506121d182612bd1565b604082019050919050565b60006121e96022836127bc565b91506121f482612c20565b604082019050919050565b600061220c6010836127bc565b915061221782612c6f565b602082019050919050565b600061222f6022836127bc565b915061223a82612c98565b604082019050919050565b6000612252601e836127bc565b915061225d82612ce7565b602082019050919050565b60006122756020836127bc565b915061228082612d10565b602082019050919050565b60006122986021836127bc565b91506122a382612d39565b604082019050919050565b60006122bb6025836127bc565b91506122c682612d88565b604082019050919050565b60006122de6024836127bc565b91506122e982612dd7565b604082019050919050565b60006123016025836127bc565b915061230c82612e26565b604082019050919050565b6000612324601f836127bc565b915061232f82612e75565b602082019050919050565b612343816128aa565b82525050565b612352816128b4565b82525050565b600061236382612150565b915061236f828561200b565b60208201915061237f828461200b565b6020820191508190509392505050565b60006020820190506123a46000830184611fde565b92915050565b60006020820190506123bf6000830184611fed565b92915050565b60006020820190506123da6000830184611ffc565b92915050565b600060c0820190506123f56000830189611ffc565b6124026020830188611fde565b61240f6040830187611fde565b61241c606083018661233a565b612429608083018561233a565b61243660a083018461233a565b979650505050505050565b600060a0820190506124566000830188611ffc565b6124636020830187611ffc565b6124706040830186611ffc565b61247d606083018561233a565b61248a6080830184611fde565b9695505050505050565b60006080820190506124a96000830187611ffc565b6124b66020830186612349565b6124c36040830185611ffc565b6124d06060830184611ffc565b95945050505050565b600060208201905081810360008301526124f38184612022565b905092915050565b600060208201905081810360008301526125148161205b565b9050919050565b600060208201905081810360008301526125348161207e565b9050919050565b60006020820190508181036000830152612554816120a1565b9050919050565b60006020820190508181036000830152612574816120c4565b9050919050565b60006020820190508181036000830152612594816120e7565b9050919050565b600060208201905081810360008301526125b48161210a565b9050919050565b600060208201905081810360008301526125d48161212d565b9050919050565b600060208201905081810360008301526125f481612173565b9050919050565b6000602082019050818103600083015261261481612196565b9050919050565b60006020820190508181036000830152612634816121b9565b9050919050565b60006020820190508181036000830152612654816121dc565b9050919050565b60006020820190508181036000830152612674816121ff565b9050919050565b6000602082019050818103600083015261269481612222565b9050919050565b600060208201905081810360008301526126b481612245565b9050919050565b600060208201905081810360008301526126d481612268565b9050919050565b600060208201905081810360008301526126f48161228b565b9050919050565b60006020820190508181036000830152612714816122ae565b9050919050565b60006020820190508181036000830152612734816122d1565b9050919050565b60006020820190508181036000830152612754816122f4565b9050919050565b6000602082019050818103600083015261277481612317565b9050919050565b6000602082019050612790600083018461233a565b92915050565b60006020820190506127ab6000830184612349565b92915050565b600081519050919050565b600082825260208201905092915050565b600081905092915050565b60006127e3826128aa565b91506127ee836128aa565b9250827fffffffffffffffffffffffffffffffffffffffffffffffffffffffffffffffff0382111561282357612822612930565b5b828201905092915050565b6000612839826128aa565b9150612844836128aa565b92508282101561285757612856612930565b5b828203905092915050565b600061286d8261288a565b9050919050565b60008115159050919050565b6000819050919050565b600073ffffffffffffffffffffffffffffffffffffffff82169050919050565b6000819050919050565b600060ff82169050919050565b60005b838110156128df5780820151818401526020810190506128c4565b838111156128ee576000848401525b50505050565b6000600282049050600182168061290c57607f821691505b602082108114156129205761291f61295f565b5b50919050565b6000819050919050565b7f4e487b7100000000000000000000000000000000000000000000000000000000600052601160045260246000fd5b7f4e487b7100000000000000000000000000000000000000000000000000000000600052602260045260246000fd5b6000601f19601f8301169050919050565b7f45434453413a20696e76616c6964207369676e61747572650000000000000000600082015250565b7f45524332303a207472616e7366657220746f20746865207a65726f206164647260008201527f6573730000000000000000000000000000000000000000000000000000000000602082015250565b7f5061757361626c653a206e6f7420706175736564000000000000000000000000600082015250565b7f45524332303a206275726e20616d6f756e7420657863656564732062616c616e60008201527f6365000000000000000000000000000000000000000000000000000000000000602082015250565b7f45434453413a20696e76616c6964207369676e6174757265206c656e67746800600082015250565b7f4f776e61626c653a206e6577206f776e657220697320746865207a65726f206160008201527f6464726573730000000000000000000000000000000000000000000000000000602082015250565b7f45524332303a20617070726f766520746f20746865207a65726f20616464726560008201527f7373000000000000000000000000000000000000000000000000000000000000602082015250565b7f1901000000000000000000000000000000000000000000000000000000000000600082015250565b7f45524332303a20696e73756666696369656e7420616c6c6f77616e6365000000600082015250565b7f45524332305065726d69743a206578706972656420646561646c696e65000000600082015250565b7f45524332303a207472616e7366657220616d6f756e742065786365656473206260008201527f616c616e63650000000000000000000000000000000000000000000000000000602082015250565b7f45434453413a20696e76616c6964207369676e6174757265202773272076616c60008201527f7565000000000000000000000000000000000000000000000000000000000000602082015250565b7f5061757361626c653a2070617573656400000000000000000000000000000000600082015250565b7f45434453413a20696e76616c6964207369676e6174757265202776272076616c60008201527f7565000000000000000000000000000000000000000000000000000000000000602082015250565b7f45524332305065726d69743a20696e76616c6964207369676e61747572650000600082015250565b7f4f776e61626c653a2063616c6c6572206973206e6f7420746865206f776e6572600082015250565b7f45524332303a206275726e2066726f6d20746865207a65726f2061646472657360008201527f7300000000000000000000000000000000000000000000000000000000000000602082015250565b7f45524332303a207472616e736665722066726f6d20746865207a65726f20616460008201527f6472657373000000000000000000000000000000000000000000000000000000602082015250565b7f45524332303a20617070726f76652066726f6d20746865207a65726f2061646460008201527f7265737300000000000000000000000000000000000000000000000000000000602082015250565b7f45524332303a2064656372656173656420616c6c6f77616e63652062656c6f7760008201527f207a65726f000000000000000000000000000000000000000000000000000000602082015250565b7f45524332303a206d696e7420746f20746865207a65726f206164647265737300600082015250565b612ea781612862565b8114612eb257600080fd5b50565b612ebe81612880565b8114612ec957600080fd5b50565b612ed5816128aa565b8114612ee057600080fd5b50565b612eec816128b4565b8114612ef757600080fd5b5056fea2646970667358221220a0f68072cc8d20396b6c57e98b3635a1315e53851e5d328265deb6d9a41a0e6964736f6c63430008040033",
  "linkReferences": {},
  "deployedLinkReferences": {}
}