{
  "_format": "hh-sol-artifact-1",
  "contractName": "ZombieOwnership",
  "sourceName": "contracts/ZombieOwnership.sol",
  "abi": [
    {
      "anonymous": false,
      "inputs": [
        {
          "indexed": true,
          "internalType": "address",
          "name": "_owner",
          "type": "address"
        },
        {
          "indexed": true,
          "internalType": "address",
          "name": "_approved",
          "type": "address"
        },
        {
          "indexed": false,
          "internalType": "uint256",
          "name": "_tokenId",
          "type": "uint256"
        }
      ],
      "name": "Approval",
      "type": "event"
    },
    {
      "anonymous": false,
      "inputs": [
        {
          "indexed": false,
          "internalType": "uint256",
          "name": "zombieId",
          "type": "uint256"
        },
        {
          "indexed": false,
          "internalType": "string",
          "name": "name",
          "type": "string"
        },
        {
          "indexed": false,
          "internalType": "uint256",
          "name": "dna",
          "type": "uint256"
        }
      ],
      "name": "NewZombie",
      "type": "event"
    },
    {
      "anonymous": false,
      "inputs": [
        {
          "indexed": true,
          "internalType": "address",
          "name": "previousOwner",
          "type": "address"
        },
        {
          "indexed": false,
          "internalType": "address",
          "name": "indexedOwner",
          "type": "address"
        }
      ],
      "name": "OwnershipTransferred",
      "type": "event"
    },
    {
      "anonymous": false,
      "inputs": [
        {
          "indexed": true,
          "internalType": "address",
          "name": "_from",
          "type": "address"
        },
        {
          "indexed": true,
          "internalType": "address",
          "name": "_to",
          "type": "address"
        },
        {
          "indexed": false,
          "internalType": "uint256",
          "name": "_tokenId",
          "type": "uint256"
        }
      ],
      "name": "Transfer",
      "type": "event"
    },
    {
      "inputs": [
        {
          "internalType": "address",
          "name": "_to",
          "type": "address"
        },
        {
          "internalType": "uint256",
          "name": "_tokenId",
          "type": "uint256"
        }
      ],
      "name": "approve",
      "outputs": [],
      "stateMutability": "nonpayable",
      "type": "function"
    },
    {
      "inputs": [
        {
          "internalType": "uint256",
          "name": "_zombieId",
          "type": "uint256"
        },
        {
          "internalType": "uint256",
          "name": "_targetId",
          "type": "uint256"
        }
      ],
      "name": "attack",
      "outputs": [],
      "stateMutability": "nonpayable",
      "type": "function"
    },
    {
      "inputs": [
        {
          "internalType": "address",
          "name": "_owner",
          "type": "address"
        }
      ],
      "name": "balanceOf",
      "outputs": [
        {
          "internalType": "uint256",
          "name": "_balance",
          "type": "uint256"
        }
      ],
      "stateMutability": "view",
      "type": "function"
    },
    {
      "inputs": [
        {
          "internalType": "uint256",
          "name": "_zombieId",
          "type": "uint256"
        },
        {
          "internalType": "uint256",
          "name": "_newDna",
          "type": "uint256"
        }
      ],
      "name": "changeDna",
      "outputs": [],
      "stateMutability": "nonpayable",
      "type": "function"
    },
    {
      "inputs": [
        {
          "internalType": "uint256",
          "name": "_zombieId",
          "type": "uint256"
        },
        {
          "internalType": "string",
          "name": "_newName",
          "type": "string"
        }
      ],
      "name": "changeName",
      "outputs": [],
      "stateMutability": "nonpayable",
      "type": "function"
    },
    {
      "inputs": [
        {
          "internalType": "string",
          "name": "_name",
          "type": "string"
        }
      ],
      "name": "createRandomZombie",
      "outputs": [],
      "stateMutability": "nonpayable",
      "type": "function"
    },
    {
      "inputs": [
        {
          "internalType": "uint256",
          "name": "_zombieId",
          "type": "uint256"
        },
        {
          "internalType": "uint256",
          "name": "_kittyId",
          "type": "uint256"
        }
      ],
      "name": "feedOnKitty",
      "outputs": [],
      "stateMutability": "nonpayable",
      "type": "function"
    },
    {
      "inputs": [
        {
          "internalType": "address",
          "name": "_owner",
          "type": "address"
        }
      ],
      "name": "getZombiesByOwner",
      "outputs": [
        {
          "internalType": "uint256[]",
          "name": "",
          "type": "uint256[]"
        }
      ],
      "stateMutability": "view",
      "type": "function"
    },
    {
      "inputs": [
        {
          "internalType": "uint256",
          "name": "_zombieId",
          "type": "uint256"
        }
      ],
      "name": "levelUp",
      "outputs": [],
      "stateMutability": "payable",
      "type": "function"
    },
    {
      "inputs": [],
      "name": "owner",
      "outputs": [
        {
          "internalType": "address payable",
          "name": "",
          "type": "address"
        }
      ],
      "stateMutability": "view",
      "type": "function"
    },
    {
      "inputs": [
        {
          "internalType": "uint256",
          "name": "_tokenId",
          "type": "uint256"
        }
      ],
      "name": "ownerOf",
      "outputs": [
        {
          "internalType": "address",
          "name": "_owner",
          "type": "address"
        }
      ],
      "stateMutability": "view",
      "type": "function"
    },
    {
      "inputs": [
        {
          "internalType": "address",
          "name": "_address",
          "type": "address"
        }
      ],
      "name": "setKittyContractAddress",
      "outputs": [],
      "stateMutability": "nonpayable",
      "type": "function"
    },
    {
      "inputs": [
        {
          "internalType": "uint256",
          "name": "_fee",
          "type": "uint256"
        }
      ],
      "name": "setLevelUpFee",
      "outputs": [],
      "stateMutability": "nonpayable",
      "type": "function"
    },
    {
      "inputs": [
        {
          "internalType": "uint256",
          "name": "_tokenId",
          "type": "uint256"
        }
      ],
      "name": "takeOwnership",
      "outputs": [],
      "stateMutability": "nonpayable",
      "type": "function"
    },
    {
      "inputs": [
        {
          "internalType": "address",
          "name": "_to",
          "type": "address"
        },
        {
          "internalType": "uint256",
          "name": "_tokenId",
          "type": "uint256"
        }
      ],
      "name": "transfer",
      "outputs": [],
      "stateMutability": "nonpayable",
      "type": "function"
    },
    {
      "inputs": [
        {
          "internalType": "address",
          "name": "newOwner",
          "type": "address"
        }
      ],
      "name": "transferOwnership",
      "outputs": [],
      "stateMutability": "nonpayable",
      "type": "function"
    },
    {
      "inputs": [],
      "name": "withdraw",
      "outputs": [],
      "stateMutability": "payable",
      "type": "function"
    },
    {
      "inputs": [
        {
          "internalType": "uint256",
          "name": "",
          "type": "uint256"
        }
      ],
      "name": "zombieToOwner",
      "outputs": [
        {
          "internalType": "address",
          "name": "",
          "type": "address"
        }
      ],
      "stateMutability": "view",
      "type": "function"
    },
    {
      "inputs": [
        {
          "internalType": "uint256",
          "name": "",
          "type": "uint256"
        }
      ],
      "name": "zombies",
      "outputs": [
        {
          "internalType": "string",
          "name": "name",
          "type": "string"
        },
        {
          "internalType": "uint256",
          "name": "dna",
          "type": "uint256"
        },
        {
          "internalType": "uint32",
          "name": "level",
          "type": "uint32"
        },
        {
          "internalType": "uint32",
          "name": "readyTime",
          "type": "uint32"
        },
        {
          "internalType": "uint16",
          "name": "winCount",
          "type": "uint16"
        },
        {
          "internalType": "uint16",
          "name": "lossCount",
          "type": "uint16"
        }
      ],
      "stateMutability": "view",
      "type": "function"
    }
  ],
  "bytecode": "0x60806040526010600155600154600a6200001a9190620000e8565b6002556201518060035566038d7ea4c6800060085560006009556046600a553480156200004657600080fd5b50336000806101000a81548173ffffffffffffffffffffffffffffffffffffffff021916908373ffffffffffffffffffffffffffffffffffffffff1602179055506200026b565b6000808291508390505b6001851115620000df57808604811115620000b757620000b66200022f565b5b6001851615620000c75780820291505b8081029050620000d7856200025e565b945062000097565b94509492505050565b6000620000f58262000225565b9150620001028362000225565b9250620001317fffffffffffffffffffffffffffffffffffffffffffffffffffffffffffffffff848462000139565b905092915050565b6000826200014b57600190506200021e565b816200015b57600090506200021e565b81600181146200017457600281146200017f57620001b5565b60019150506200021e565b60ff8411156200019457620001936200022f565b5b8360020a915084821115620001ae57620001ad6200022f565b5b506200021e565b5060208310610133831016604e8410600b8410161715620001ef5782820a905083811115620001e957620001e86200022f565b5b6200021e565b620001fe84848460016200008d565b925090508184048111156200021857620002176200022f565b5b81810290505b9392505050565b6000819050919050565b7f4e487b7100000000000000000000000000000000000000000000000000000000600052601160045260246000fd5b60008160011c9050919050565b612738806200027b6000396000f3fe6080604052600436106101145760003560e01c80636352211e116100a0578063b2e6ceeb11610064578063b2e6ceeb14610396578063c39cbef1146103bf578063ccf670f8146103e8578063e1fa763814610411578063f2fde38b1461043a57610114565b80636352211e1461029f57806370a08231146102dc5780637bff0a01146103195780638da5cb5b14610342578063a9059cbb1461036d57610114565b80633ccfd60b116100e75780633ccfd60b146101c95780634412e104146101d3578063528b7b8f146102105780635f4623f11461024d5780635faf28801461027657610114565b8063095ea7b3146101195780630ce90ec21461014257806317a7f4cc1461015e5780632052465e14610187575b600080fd5b34801561012557600080fd5b50610140600480360381019061013b9190611dc8565b610463565b005b61015c60048036038101906101579190611f20565b61058b565b005b34801561016a57600080fd5b5061018560048036038101906101809190611f9d565b610626565b005b34801561019357600080fd5b506101ae60048036038101906101a99190611f20565b61071d565b6040516101c09695949392919061215c565b60405180910390f35b6101d161082d565b005b3480156101df57600080fd5b506101fa60048036038101906101f59190611d9f565b6108ee565b6040516102079190612118565b60405180910390f35b34801561021c57600080fd5b5061023760048036038101906102329190611f20565b610a8d565b60405161024491906120e2565b60405180910390f35b34801561025957600080fd5b50610274600480360381019061026f9190611d9f565b610ac0565b005b34801561028257600080fd5b5061029d60048036038101906102989190611f9d565b610b5c565b005b3480156102ab57600080fd5b506102c660048036038101906102c19190611f20565b610c90565b6040516102d391906120e2565b60405180910390f35b3480156102e857600080fd5b5061030360048036038101906102fe9190611d9f565b610ccd565b60405161031091906121c4565b60405180910390f35b34801561032557600080fd5b50610340600480360381019061033b9190611edf565b610d16565b005b34801561034e57600080fd5b50610357610d97565b60405161036491906120fd565b60405180910390f35b34801561037957600080fd5b50610394600480360381019061038f9190611dc8565b610dbb565b005b3480156103a257600080fd5b506103bd60048036038101906103b89190611f20565b610e37565b005b3480156103cb57600080fd5b506103e660048036038101906103e19190611f49565b610ebe565b005b3480156103f457600080fd5b5061040f600480360381019061040a9190611f20565b611002565b005b34801561041d57600080fd5b5061043860048036038101906104339190611f9d565b611064565b005b34801561044657600080fd5b50610461600480360381019061045c9190611d9f565b611314565b005b806005600082815260200190815260200160002060009054906101000a900473ffffffffffffffffffffffffffffffffffffffff1673ffffffffffffffffffffffffffffffffffffffff163373ffffffffffffffffffffffffffffffffffffffff16146104cf57600080fd5b82600b600084815260200190815260200160002060006101000a81548173ffffffffffffffffffffffffffffffffffffffff021916908373ffffffffffffffffffffffffffffffffffffffff1602179055508273ffffffffffffffffffffffffffffffffffffffff163373ffffffffffffffffffffffffffffffffffffffff167f8c5be1e5ebec7d5bd14f71427d1e84f3dd0314c0f7b2291e5b200ac8c7c3b9258460405161057e91906121c4565b60405180910390a3505050565b600854341461059957600080fd5b600481815481106105d3577f4e487b7100000000000000000000000000000000000000000000000000000000600052603260045260246000fd5b9060005260206000209060030201600201600081819054906101000a900463ffffffff168092919061060490612592565b91906101000a81548163ffffffff021916908363ffffffff1602179055505050565b6000600760009054906101000a900473ffffffffffffffffffffffffffffffffffffffff1673ffffffffffffffffffffffffffffffffffffffff1663e98b7f4d836040518263ffffffff1660e01b815260040161068391906121c4565b6101406040518083038186803b15801561069c57600080fd5b505afa1580156106b0573d6000803e3d6000fd5b505050506040513d601f19601f820116820180604052508101906106d49190611e04565b909192939495969798509091929394959697509091929394959650909192939495509091929394509091929350909192509091509050809150506107188382611475565b505050565b6004818154811061072d57600080fd5b9060005260206000209060030201600091509050806000018054610750906124e6565b80601f016020809104026020016040519081016040528092919081815260200182805461077c906124e6565b80156107c95780601f1061079e576101008083540402835291602001916107c9565b820191906000526020600020905b8154815290600101906020018083116107ac57829003601f168201915b5050505050908060010154908060020160009054906101000a900463ffffffff16908060020160049054906101000a900463ffffffff16908060020160089054906101000a900461ffff169080600201600a9054906101000a900461ffff16905086565b60008054906101000a900473ffffffffffffffffffffffffffffffffffffffff1673ffffffffffffffffffffffffffffffffffffffff163373ffffffffffffffffffffffffffffffffffffffff161461088557600080fd5b60008054906101000a900473ffffffffffffffffffffffffffffffffffffffff1673ffffffffffffffffffffffffffffffffffffffff166108fc479081150290604051600060405180830381858888f193505050501580156108eb573d6000803e3d6000fd5b50565b60606000600660008473ffffffffffffffffffffffffffffffffffffffff1673ffffffffffffffffffffffffffffffffffffffff1681526020019081526020016000205467ffffffffffffffff811115610971577f4e487b7100000000000000000000000000000000000000000000000000000000600052604160045260246000fd5b60405190808252806020026020018201604052801561099f5781602001602082028036833780820191505090505b5090506000805b600480549050811015610a82578473ffffffffffffffffffffffffffffffffffffffff166005600083815260200190815260200160002060009054906101000a900473ffffffffffffffffffffffffffffffffffffffff1673ffffffffffffffffffffffffffffffffffffffff161415610a6f5780838381518110610a54577f4e487b7100000000000000000000000000000000000000000000000000000000600052603260045260246000fd5b6020026020010181815250508180610a6b90612549565b9250505b8080610a7a90612549565b9150506109a6565b508192505050919050565b60056020528060005260406000206000915054906101000a900473ffffffffffffffffffffffffffffffffffffffff1681565b60008054906101000a900473ffffffffffffffffffffffffffffffffffffffff1673ffffffffffffffffffffffffffffffffffffffff163373ffffffffffffffffffffffffffffffffffffffff1614610b1857600080fd5b80600760006101000a81548173ffffffffffffffffffffffffffffffffffffffff021916908373ffffffffffffffffffffffffffffffffffffffff16021790555050565b6014828160048281548110610b9a577f4e487b7100000000000000000000000000000000000000000000000000000000600052603260045260246000fd5b906000526020600020906003020160020160009054906101000a900463ffffffff1663ffffffff161015610bcd57600080fd5b836005600082815260200190815260200160002060009054906101000a900473ffffffffffffffffffffffffffffffffffffffff1673ffffffffffffffffffffffffffffffffffffffff163373ffffffffffffffffffffffffffffffffffffffff1614610c3957600080fd5b8360048681548110610c74577f4e487b7100000000000000000000000000000000000000000000000000000000600052603260045260246000fd5b9060005260206000209060030201600101819055505050505050565b60006005600083815260200190815260200160002060009054906101000a900473ffffffffffffffffffffffffffffffffffffffff169050919050565b6000600660008373ffffffffffffffffffffffffffffffffffffffff1673ffffffffffffffffffffffffffffffffffffffff168152602001908152602001600020549050919050565b6000600660003373ffffffffffffffffffffffffffffffffffffffff1673ffffffffffffffffffffffffffffffffffffffff1681526020019081526020016000205414610d6257600080fd5b6000610d6d826115be565b9050606481610d7c91906125bf565b81610d8791906123f8565b9050610d938282611603565b5050565b60008054906101000a900473ffffffffffffffffffffffffffffffffffffffff1681565b806005600082815260200190815260200160002060009054906101000a900473ffffffffffffffffffffffffffffffffffffffff1673ffffffffffffffffffffffffffffffffffffffff163373ffffffffffffffffffffffffffffffffffffffff1614610e2757600080fd5b610e32338484611840565b505050565b3373ffffffffffffffffffffffffffffffffffffffff16600b600083815260200190815260200160002060009054906101000a900473ffffffffffffffffffffffffffffffffffffffff1673ffffffffffffffffffffffffffffffffffffffff1614610ea257600080fd5b6000610ead82610c90565b9050610eba813384611840565b5050565b6002828160048281548110610efc577f4e487b7100000000000000000000000000000000000000000000000000000000600052603260045260246000fd5b906000526020600020906003020160020160009054906101000a900463ffffffff1663ffffffff161015610f2f57600080fd5b836005600082815260200190815260200160002060009054906101000a900473ffffffffffffffffffffffffffffffffffffffff1673ffffffffffffffffffffffffffffffffffffffff163373ffffffffffffffffffffffffffffffffffffffff1614610f9b57600080fd5b8360048681548110610fd6577f4e487b7100000000000000000000000000000000000000000000000000000000600052603260045260246000fd5b90600052602060002090600302016000019080519060200190610ffa929190611c40565b505050505050565b60008054906101000a900473ffffffffffffffffffffffffffffffffffffffff1673ffffffffffffffffffffffffffffffffffffffff163373ffffffffffffffffffffffffffffffffffffffff161461105a57600080fd5b8060088190555050565b816005600082815260200190815260200160002060009054906101000a900473ffffffffffffffffffffffffffffffffffffffff1673ffffffffffffffffffffffffffffffffffffffff163373ffffffffffffffffffffffffffffffffffffffff16146110d057600080fd5b60006004848154811061110c577f4e487b7100000000000000000000000000000000000000000000000000000000600052603260045260246000fd5b90600052602060002090600302019050600060048481548110611158577f4e487b7100000000000000000000000000000000000000000000000000000000600052603260045260246000fd5b9060005260206000209060030201905060006111746064611a28565b9050600a548111611272576111a960018460020160089054906101000a900461ffff1661ffff16611a8890919063ffffffff16565b8360020160086101000a81548161ffff021916908361ffff1602179055506111f560018460020160009054906101000a900463ffffffff1663ffffffff16611ae290919063ffffffff16565b8360020160006101000a81548163ffffffff021916908363ffffffff160217905550611241600183600201600a9054906101000a900461ffff1661ffff16611a8890919063ffffffff16565b82600201600a6101000a81548161ffff021916908361ffff16021790555061126d868360010154611475565b61130c565b61129c600184600201600a9054906101000a900461ffff1661ffff16611a8890919063ffffffff16565b83600201600a6101000a81548161ffff021916908361ffff1602179055506112e460018360020160089054906101000a900461ffff1661ffff16611a8890919063ffffffff16565b8260020160086101000a81548161ffff021916908361ffff16021790555061130b83611b40565b5b505050505050565b60008054906101000a900473ffffffffffffffffffffffffffffffffffffffff1673ffffffffffffffffffffffffffffffffffffffff163373ffffffffffffffffffffffffffffffffffffffff161461136c57600080fd5b60008054906101000a900473ffffffffffffffffffffffffffffffffffffffff1673ffffffffffffffffffffffffffffffffffffffff168173ffffffffffffffffffffffffffffffffffffffff16146113c457600080fd5b60008054906101000a900473ffffffffffffffffffffffffffffffffffffffff1673ffffffffffffffffffffffffffffffffffffffff167f8be0079c531659141344cd1fd0a4f28419497f9722a3daafe3b4186f6b6457e08260405161142a91906120e2565b60405180910390a2806000806101000a81548173ffffffffffffffffffffffffffffffffffffffff021916908373ffffffffffffffffffffffffffffffffffffffff16021790555050565b816005600082815260200190815260200160002060009054906101000a900473ffffffffffffffffffffffffffffffffffffffff1673ffffffffffffffffffffffffffffffffffffffff163373ffffffffffffffffffffffffffffffffffffffff16146114e157600080fd5b60006004848154811061151d577f4e487b7100000000000000000000000000000000000000000000000000000000600052603260045260246000fd5b9060005260206000209060030201905061153681611b7a565b61153f57600080fd5b6002548361154d91906125bf565b9250600060028483600101546115639190612337565b61156d91906123c7565b90506115ae6040518060400160405280600681526020017f4e6f4e616d65000000000000000000000000000000000000000000000000000081525082611603565b6115b782611b40565b5050505050565b600080826040516020016115d2919061213a565b6040516020818303038152906040528051906020012060001c9050600254816115fb91906125bf565b915050919050565b60046040518060c00160405280848152602001838152602001600163ffffffff16815260200161163e60035442611ba190919063ffffffff16565b63ffffffff168152602001600061ffff168152602001600061ffff16815250908060018154018082558091505060019003906000526020600020906003020160009091909190915060008201518160000190805190602001906116a2929190611c40565b506020820151816001015560408201518160020160006101000a81548163ffffffff021916908363ffffffff16021790555060608201518160020160046101000a81548163ffffffff021916908363ffffffff16021790555060808201518160020160086101000a81548161ffff021916908361ffff16021790555060a082015181600201600a6101000a81548161ffff021916908361ffff16021790555050506000600160048054905061175791906123f8565b9050336005600083815260200190815260200160002060006101000a81548173ffffffffffffffffffffffffffffffffffffffff021916908373ffffffffffffffffffffffffffffffffffffffff160217905550600660003373ffffffffffffffffffffffffffffffffffffffff1673ffffffffffffffffffffffffffffffffffffffff16815260200190815260200160002060008154809291906117fb90612549565b91905055507f88f026aacbbecc90c18411df4b1185fd8d9be2470f1962f192bf84a27d0704b781848460405161183393929190612216565b60405180910390a1505050565b6118936001600660008573ffffffffffffffffffffffffffffffffffffffff1673ffffffffffffffffffffffffffffffffffffffff16815260200190815260200160002054611ba190919063ffffffff16565b600660008473ffffffffffffffffffffffffffffffffffffffff1673ffffffffffffffffffffffffffffffffffffffff168152602001908152602001600020819055506119296001600660008673ffffffffffffffffffffffffffffffffffffffff1673ffffffffffffffffffffffffffffffffffffffff16815260200190815260200160002054611bf390919063ffffffff16565b600660008573ffffffffffffffffffffffffffffffffffffffff1673ffffffffffffffffffffffffffffffffffffffff16815260200190815260200160002081905550816005600083815260200190815260200160002060006101000a81548173ffffffffffffffffffffffffffffffffffffffff021916908373ffffffffffffffffffffffffffffffffffffffff1602179055508173ffffffffffffffffffffffffffffffffffffffff168373ffffffffffffffffffffffffffffffffffffffff167fddf252ad1be2c89b69c2b068fc378daa952ba7f163c4a11628f55a4df523b3ef83604051611a1b91906121c4565b60405180910390a3505050565b6000611a406001600954611ba190919063ffffffff16565b600981905550814233600954604051602001611a5e939291906121df565b6040516020818303038152906040528051906020012060001c611a8191906125bf565b9050919050565b6000808284611a9791906122ff565b90508361ffff168161ffff161015611ad8577f4e487b7100000000000000000000000000000000000000000000000000000000600052600160045260246000fd5b8091505092915050565b6000808284611af1919061238d565b90508363ffffffff168163ffffffff161015611b36577f4e487b7100000000000000000000000000000000000000000000000000000000600052600160045260246000fd5b8091505092915050565b611b5560035442611ba190919063ffffffff16565b8160020160046101000a81548163ffffffff021916908363ffffffff16021790555050565b6000428260020160049054906101000a900463ffffffff1663ffffffff1611159050919050565b6000808284611bb09190612337565b905083811015611be9577f4e487b7100000000000000000000000000000000000000000000000000000000600052600160045260246000fd5b8091505092915050565b600082821115611c2c577f4e487b7100000000000000000000000000000000000000000000000000000000600052600160045260246000fd5b8183611c3891906123f8565b905092915050565b828054611c4c906124e6565b90600052602060002090601f016020900481019282611c6e5760008555611cb5565b82601f10611c8757805160ff1916838001178555611cb5565b82800160010185558215611cb5579182015b82811115611cb4578251825591602001919060010190611c99565b5b509050611cc29190611cc6565b5090565b5b80821115611cdf576000816000905550600101611cc7565b5090565b6000611cf6611cf184612279565b612254565b905082815260208101848484011115611d0e57600080fd5b611d198482856124a4565b509392505050565b600081359050611d30816126bd565b92915050565b600081519050611d45816126d4565b92915050565b600082601f830112611d5c57600080fd5b8135611d6c848260208601611ce3565b91505092915050565b600081359050611d84816126eb565b92915050565b600081519050611d99816126eb565b92915050565b600060208284031215611db157600080fd5b6000611dbf84828501611d21565b91505092915050565b60008060408385031215611ddb57600080fd5b6000611de985828601611d21565b9250506020611dfa85828601611d75565b9150509250929050565b6000806000806000806000806000806101408b8d031215611e2457600080fd5b6000611e328d828e01611d36565b9a50506020611e438d828e01611d36565b9950506040611e548d828e01611d8a565b9850506060611e658d828e01611d8a565b9750506080611e768d828e01611d8a565b96505060a0611e878d828e01611d8a565b95505060c0611e988d828e01611d8a565b94505060e0611ea98d828e01611d8a565b935050610100611ebb8d828e01611d8a565b925050610120611ecd8d828e01611d8a565b9150509295989b9194979a5092959850565b600060208284031215611ef157600080fd5b600082013567ffffffffffffffff811115611f0b57600080fd5b611f1784828501611d4b565b91505092915050565b600060208284031215611f3257600080fd5b6000611f4084828501611d75565b91505092915050565b60008060408385031215611f5c57600080fd5b6000611f6a85828601611d75565b925050602083013567ffffffffffffffff811115611f8757600080fd5b611f9385828601611d4b565b9150509250929050565b60008060408385031215611fb057600080fd5b6000611fbe85828601611d75565b9250506020611fcf85828601611d75565b9150509250929050565b6000611fe583836120b5565b60208301905092915050565b611ffa8161243e565b82525050565b6120098161242c565b82525050565b600061201a826122ba565b61202481856122dd565b935061202f836122aa565b8060005b838110156120605781516120478882611fd9565b9750612052836122d0565b925050600181019050612033565b5085935050505092915050565b6000612078826122c5565b61208281856122ee565b93506120928185602086016124b3565b61209b816126ac565b840191505092915050565b6120af8161245c565b82525050565b6120be8161248a565b82525050565b6120cd8161248a565b82525050565b6120dc81612494565b82525050565b60006020820190506120f76000830184612000565b92915050565b60006020820190506121126000830184611ff1565b92915050565b60006020820190508181036000830152612132818461200f565b905092915050565b60006020820190508181036000830152612154818461206d565b905092915050565b600060c0820190508181036000830152612176818961206d565b905061218560208301886120c4565b61219260408301876120d3565b61219f60608301866120d3565b6121ac60808301856120a6565b6121b960a08301846120a6565b979650505050505050565b60006020820190506121d960008301846120c4565b92915050565b60006060820190506121f460008301866120c4565b6122016020830185612000565b61220e60408301846120c4565b949350505050565b600060608201905061222b60008301866120c4565b818103602083015261223d818561206d565b905061224c60408301846120c4565b949350505050565b600061225e61226f565b905061226a8282612518565b919050565b6000604051905090565b600067ffffffffffffffff8211156122945761229361267d565b5b61229d826126ac565b9050602081019050919050565b6000819050602082019050919050565b600081519050919050565b600081519050919050565b6000602082019050919050565b600082825260208201905092915050565b600082825260208201905092915050565b600061230a8261245c565b91506123158361245c565b92508261ffff0382111561232c5761232b6125f0565b5b828201905092915050565b60006123428261248a565b915061234d8361248a565b9250827fffffffffffffffffffffffffffffffffffffffffffffffffffffffffffffffff03821115612382576123816125f0565b5b828201905092915050565b600061239882612494565b91506123a383612494565b92508263ffffffff038211156123bc576123bb6125f0565b5b828201905092915050565b60006123d28261248a565b91506123dd8361248a565b9250826123ed576123ec61261f565b5b828204905092915050565b60006124038261248a565b915061240e8361248a565b925082821015612421576124206125f0565b5b828203905092915050565b60006124378261246a565b9050919050565b60006124498261246a565b9050919050565b60008115159050919050565b600061ffff82169050919050565b600073ffffffffffffffffffffffffffffffffffffffff82169050919050565b6000819050919050565b600063ffffffff82169050919050565b82818337600083830152505050565b60005b838110156124d15780820151818401526020810190506124b6565b838111156124e0576000848401525b50505050565b600060028204905060018216806124fe57607f821691505b602082108114156125125761251161264e565b5b50919050565b612521826126ac565b810181811067ffffffffffffffff821117156125405761253f61267d565b5b80604052505050565b60006125548261248a565b91507fffffffffffffffffffffffffffffffffffffffffffffffffffffffffffffffff821415612587576125866125f0565b5b600182019050919050565b600061259d82612494565b915063ffffffff8214156125b4576125b36125f0565b5b600182019050919050565b60006125ca8261248a565b91506125d58361248a565b9250826125e5576125e461261f565b5b828206905092915050565b7f4e487b7100000000000000000000000000000000000000000000000000000000600052601160045260246000fd5b7f4e487b7100000000000000000000000000000000000000000000000000000000600052601260045260246000fd5b7f4e487b7100000000000000000000000000000000000000000000000000000000600052602260045260246000fd5b7f4e487b7100000000000000000000000000000000000000000000000000000000600052604160045260246000fd5b6000601f19601f8301169050919050565b6126c68161242c565b81146126d157600080fd5b50565b6126dd81612450565b81146126e857600080fd5b50565b6126f48161248a565b81146126ff57600080fd5b5056fea2646970667358221220239ad384d2b9b29b02e84b8989556ccd7446dee4de161b5134feb2f039bda9b164736f6c63430008040033",
  "linkReferences": {},
  "deployedLinkReferences": {}
}